S01A000052544F535F41737369676E6D656E742831292E73726563C8
S11300000C942A000C9447000C9447000C9447006D
S11300100C9447000C9447000C9447000C94470040
S11300200C9447000C9447000C9472020C941B022D
S11300300C9447000C9447000C9447000C94470020
S11300400C9447000C9447000C9447000C94470010
S11300500C94470011241FBECFE5D8E0DEBFCDBF0E
S113006010E0A0E6B0E0E6E9F5E002C005900D92EC
S1130070A236B107D9F720E0A2E6B0E001C01D9294
S1130080AC36B207E1F70E948F010C94C9020C94BC
S11300900000442319F04130C9F10895813091F0F2
S11300A028F08230D9F0833029F108952AB381E011
S11300B090E002C0880F991F6A95E2F78095822329
S11300C08ABB089527B381E090E002C0880F991F8E
S11300D06A95E2F78095822387BB089524B381E073
S11300E090E002C0880F991F6A95E2F780958223F9
S11300F084BB089521B381E090E002C0880F991F6A
S11301006A95E2F78095822381BB0895813089F056
S113011028F08230C9F0833011F108952AB381E0C8
S113012090E002C0880F991F6A95E2F7822B8ABB80
S1130130089527B381E090E002C0880F991F6A9563
S1130140E2F7822B87BB089524B381E090E002C0DC
S1130150880F991F6A95E2F7822B84BB089521B317
S113016081E090E002C0880F991F6A95E2F7822B24
S113017081BB08954423D9F1413009F06BC081302B
S113018091F028F08230D9F0833029F108952BB30F
S113019081E090E002C0880F991F6A95E2F780958C
S11301A082238BBB089528B381E090E002C0880FBE
S11301B0991F6A95E2F78095822388BB089525B339
S11301C081E090E002C0880F991F6A95E2F780955C
S11301D0822385BB089522B381E090E002C0880F9A
S11301E0991F6A95E2F78095822382BB0895813036
S11301F089F028F08230C9F0833011F108952BB3CF
S113020081E090E002C0880F991F6A95E2F7822B83
S11302108BBB089528B381E090E002C0880F991F3A
S11302206A95E2F7822B88BB089525B381E090E0BC
S113023002C0880F991F6A95E2F7822B85BB089547
S113024022B381E090E002C0880F991F6A95E2F71B
S1130250822B82BB0895813089F028F08230C9F066
S1130260833011F108952BB381E090E002C0880F30
S1130270991F6A95E2F782278BBB089528B381E022
S113028090E002C0880F991F6A95E2F7822788BB25
S1130290089525B381E090E002C0880F991F6A9504
S11302A0E2F7822785BB089522B381E090E002C083
S11302B0880F991F6A95E2F7822782BB089541E06F
S11302C062E082E00E94490041E062E082E00E9434
S11302D0BA00089562E082E00E942B01089541E093
S11302E067E082E00E94490041E067E082E00E940A
S11302F0BA00089567E082E00E942B01089541E06E
S113030063E083E00E94490041E063E083E00E94EF
S1130310BA00089563E083E00E942B0108950E94CF
S1130320BE010E945F010E946F010E947F010E9432
S11303306A010E947A010E948A010E94160264EFF7
S113034071E080E090E00E94CB01809168008130F0
S113035021F40E946A011092680080916700813044
S113036021F40E947A011092670080916600813026
S113037061F70E948A0110926600E7CF8FB7806808
S11303808FBF83B7877F83BF83B78F7B83BF89B7D3
S1130390816089BF08950F931F939B01AC01A8EE60
S11303A0B3E00E94AF028B019C01689415F8369566
S11303B02795179507951694D1F7013041E0140756
S11303C02105310560F4802F81958093690082BFF7
S11303D081E090E090936B0080936A0024C0011147
S11303E00CC0AB01BC01032E3EE076956795579592
S11303F047953A95D1F7302D0DC0AB01BC01032EC2
S11304003EE076956795579547953A95D1F7302D07
S11304104F5F5F4F50936B0040936A00802F81952C
S11304208093690082BF1F910F91089583B7887FDD
S1130430856083BF08951F920F920FB60F92112407
S11304402F933F938F939F938091640090916500C5
S11304500196909365008093640020916A00309126
S11304606B0028173907A9F5809160008F5F80938E
S11304706000982F937019F491E0909368009DECBC
S1130480899F912D112496959695292F220F220F3D
S1130490920F891303C091E0909367009BEA899FB0
S11304A0912D112496959695292F220F920F292F7D
S11304B0220F821303C091E0909366008C3311F4F1
S11304C0109260001092650010926400809169009F
S11304D082BF9F918F913F912F910F900FBE0F90EC
S11304E01F9018951F920F920FB60F9211242F93FD
S11304F03F938F939F938091620090916300019644
S1130500909363008093620020916A0030916B00A5
S11305102130310559F428173907C1F410926300CA
S113052010926200809169008CBF10C081309105E7
S113053019F48FEF8CBF0AC02817390739F41092C9
S1130540630010926200809169008CBF9F918F912B
S11305503F912F910F900FBE0F901F9018950E94FE
S1130560BA02A59F900DB49F900DA49F800D911D7C
S113057011240895A29FB001B39FC001A39F700DE1
S1130580811D1124911DB29F700D811D1124911D97
S10905900895F894FFCF6A
S10505963C0023
S9030000FC
